{
  "contractName": "Storedata",
  "abi": [
    {
      "inputs": [],
      "payable": false,
      "stateMutability": "nonpayable",
      "type": "constructor"
    },
    {
      "anonymous": false,
      "inputs": [
        {
          "indexed": false,
          "internalType": "string",
          "name": "id",
          "type": "string"
        },
        {
          "indexed": false,
          "internalType": "string",
          "name": "fullname",
          "type": "string"
        },
        {
          "indexed": false,
          "internalType": "string",
          "name": "yearofpassing",
          "type": "string"
        },
        {
          "indexed": false,
          "internalType": "string",
          "name": "deparmentName",
          "type": "string"
        },
        {
          "indexed": false,
          "internalType": "string",
          "name": "IPFSurl",
          "type": "string"
        },
        {
          "indexed": false,
          "internalType": "string",
          "name": "Filehash",
          "type": "string"
        }
      ],
      "name": "Dataadded",
      "type": "event"
    },
    {
      "constant": true,
      "inputs": [],
      "name": "owner",
      "outputs": [
        {
          "internalType": "address",
          "name": "",
          "type": "address"
        }
      ],
      "payable": false,
      "stateMutability": "view",
      "type": "function"
    },
    {
      "constant": true,
      "inputs": [
        {
          "internalType": "string",
          "name": "",
          "type": "string"
        },
        {
          "internalType": "uint256",
          "name": "",
          "type": "uint256"
        }
      ],
      "name": "studentStorage",
      "outputs": [
        {
          "internalType": "string",
          "name": "id",
          "type": "string"
        },
        {
          "internalType": "string",
          "name": "fullname",
          "type": "string"
        },
        {
          "internalType": "string",
          "name": "yearofpassing",
          "type": "string"
        },
        {
          "internalType": "string",
          "name": "deparmentName",
          "type": "string"
        },
        {
          "internalType": "string",
          "name": "IPFSurl",
          "type": "string"
        },
        {
          "internalType": "string",
          "name": "Filehash",
          "type": "string"
        }
      ],
      "payable": false,
      "stateMutability": "view",
      "type": "function"
    },
    {
      "constant": true,
      "inputs": [
        {
          "internalType": "string",
          "name": "",
          "type": "string"
        }
      ],
      "name": "transcriptCount",
      "outputs": [
        {
          "internalType": "uint256",
          "name": "",
          "type": "uint256"
        }
      ],
      "payable": false,
      "stateMutability": "view",
      "type": "function"
    },
    {
      "constant": false,
      "inputs": [
        {
          "internalType": "string",
          "name": "id",
          "type": "string"
        },
        {
          "internalType": "string",
          "name": "fullname",
          "type": "string"
        },
        {
          "internalType": "string",
          "name": "yearofpassing",
          "type": "string"
        },
        {
          "internalType": "string",
          "name": "deparmentName",
          "type": "string"
        },
        {
          "internalType": "string",
          "name": "IPFSurl",
          "type": "string"
        },
        {
          "internalType": "string",
          "name": "Filehash",
          "type": "string"
        }
      ],
      "name": "AddDetails",
      "outputs": [],
      "payable": false,
      "stateMutability": "nonpayable",
      "type": "function"
    }
  ],
  "bytecode": "0x6080604052600080546001600160a01b031916331790553480156200002357600080fd5b50620001296040518060400160405280600b81526020016a313031393136303230323360a81b8152506040518060400160405280600e81526020016d4e6179616e205368696e6761726560901b815250604051806040016040528060048152602001633230323360e01b8152506040518060400160405280600881526020016721b7b6b83aba32b960c11b8152506040518060400160405280601781526020017f30786533333264343366746a756b6966347234726d73770000000000000000008152506040518060400160405280601781526020017f30786533333264343366746a756b6966347234726d73770000000000000000008152506200012f60201b60201c565b620006a7565b60006002876040518082805190602001908083835b60208310620001655780518252601f19909201916020918201910162000144565b6001836020036101000a03801982511681845116808217855250505050505090500191505090815260200160405180910390205490506040518060c00160405280888152602001878152602001868152602001858152602001848152602001838152506001886040518082805190602001908083835b60208310620001fc5780518252601f199092019160209182019101620001db565b51815160209384036101000a6000190180199092169116179052920194855250604080519485900382019094206000878152908252939093208451805191946200024c9450859350019062000602565b50602082810151805162000267926001850192019062000602565b50604082015180516200028591600284019160209091019062000602565b5060608201518051620002a391600384019160209091019062000602565b5060808201518051620002c191600484019160209091019062000602565b5060a08201518051620002df91600584019160209091019062000602565b509050507fb3005330bf91a0e850b72b515803812aa124ad7fdca176dae397e81ba99864ff8787878787876040518080602001806020018060200180602001806020018060200187810387528d818151815260200191508051906020019080838360005b838110156200035d57818101518382015260200162000343565b50505050905090810190601f1680156200038b5780820380516001836020036101000a031916815260200191505b5087810386528c5181528c516020918201918e019080838360005b83811015620003c0578181015183820152602001620003a6565b50505050905090810190601f168015620003ee5780820380516001836020036101000a031916815260200191505b5087810385528b5181528b516020918201918d019080838360005b838110156200042357818101518382015260200162000409565b50505050905090810190601f168015620004515780820380516001836020036101000a031916815260200191505b5087810384528a5181528a516020918201918c019080838360005b83811015620004865781810151838201526020016200046c565b50505050905090810190601f168015620004b45780820380516001836020036101000a031916815260200191505b5087810383528951815289516020918201918b019080838360005b83811015620004e9578181015183820152602001620004cf565b50505050905090810190601f168015620005175780820380516001836020036101000a031916815260200191505b5087810382528851815288516020918201918a019080838360005b838110156200054c57818101518382015260200162000532565b50505050905090810190601f1680156200057a5780820380516001836020036101000a031916815260200191505b509c5050505050505050505050505060405180910390a16002876040518082805190602001908083835b60208310620005c55780518252601f199092019160209182019101620005a4565b51815160209384036101000a6000190180199092169116179052920194855250604051938490030190922080546001019055505050505050505050565b828054600181600116156101000203166002900490600052602060002090601f016020900481019282601f106200064557805160ff191683800117855562000675565b8280016001018555821562000675579182015b828111156200067557825182559160200191906001019062000658565b506200068392915062000687565b5090565b620006a491905b808211156200068357600081556001016200068e565b90565b6110c880620006b76000396000f3fe608060405234801561001057600080fd5b506004361061004c5760003560e01c806355cfc679146100515780638da5cb5b1461036d578063cdb0eee014610391578063d0c67142146106d0575b600080fd5b6100f76004803603604081101561006757600080fd5b810190602081018135600160201b81111561008157600080fd5b82018360208201111561009357600080fd5b803590602001918460018302840111600160201b831117156100b457600080fd5b91908080601f0160208091040260200160405190810160405280939291908181526020018383808284376000920191909152509295505091359250610786915050565b6040518080602001806020018060200180602001806020018060200187810387528d818151815260200191508051906020019080838360005b83811015610148578181015183820152602001610130565b50505050905090810190601f1680156101755780820380516001836020036101000a031916815260200191505b5087810386528c5181528c516020918201918e019080838360005b838110156101a8578181015183820152602001610190565b50505050905090810190601f1680156101d55780820380516001836020036101000a031916815260200191505b5087810385528b5181528b516020918201918d019080838360005b838110156102085781810151838201526020016101f0565b50505050905090810190601f1680156102355780820380516001836020036101000a031916815260200191505b5087810384528a5181528a516020918201918c019080838360005b83811015610268578181015183820152602001610250565b50505050905090810190601f1680156102955780820380516001836020036101000a031916815260200191505b5087810383528951815289516020918201918b019080838360005b838110156102c85781810151838201526020016102b0565b50505050905090810190601f1680156102f55780820380516001836020036101000a031916815260200191505b5087810382528851815288516020918201918a019080838360005b83811015610328578181015183820152602001610310565b50505050905090810190601f1680156103555780820380516001836020036101000a031916815260200191505b509c5050505050505050505050505060405180910390f35b610375610b1d565b604080516001600160a01b039092168252519081900360200190f35b6106ce600480360360c08110156103a757600080fd5b810190602081018135600160201b8111156103c157600080fd5b8201836020820111156103d357600080fd5b803590602001918460018302840111600160201b831117156103f457600080fd5b91908080601f0160208091040260200160405190810160405280939291908181526020018383808284376000920191909152509295949360208101935035915050600160201b81111561044657600080fd5b82018360208201111561045857600080fd5b803590602001918460018302840111600160201b8311171561047957600080fd5b91908080601f0160208091040260200160405190810160405280939291908181526020018383808284376000920191909152509295949360208101935035915050600160201b8111156104cb57600080fd5b8201836020820111156104dd57600080fd5b803590602001918460018302840111600160201b831117156104fe57600080fd5b91908080601f0160208091040260200160405190810160405280939291908181526020018383808284376000920191909152509295949360208101935035915050600160201b81111561055057600080fd5b82018360208201111561056257600080fd5b803590602001918460018302840111600160201b8311171561058357600080fd5b91908080601f0160208091040260200160405190810160405280939291908181526020018383808284376000920191909152509295949360208101935035915050600160201b8111156105d557600080fd5b8201836020820111156105e757600080fd5b803590602001918460018302840111600160201b8311171561060857600080fd5b91908080601f0160208091040260200160405190810160405280939291908181526020018383808284376000920191909152509295949360208101935035915050600160201b81111561065a57600080fd5b82018360208201111561066c57600080fd5b803590602001918460018302840111600160201b8311171561068d57600080fd5b91908080601f016020809104026020016040519081016040528093929190818152602001838380828437600092019190915250929550610b2c945050505050565b005b610774600480360360208110156106e657600080fd5b810190602081018135600160201b81111561070057600080fd5b82018360208201111561071257600080fd5b803590602001918460018302840111600160201b8311171561073357600080fd5b91908080601f016020809104026020016040519081016040528093929190818152602001838380828437600092019190915250929550610fdb945050505050565b60408051918252519081900360200190f35b8151602081840181018051600180835293830195830195909520949052928352600091825260409182902080548351600293821615610100026000190190911692909204601f810185900485028301850190935282825292909183918301828280156108335780601f1061080857610100808354040283529160200191610833565b820191906000526020600020905b81548152906001019060200180831161081657829003601f168201915b505050505090806001018054600181600116156101000203166002900480601f0160208091040260200160405190810160405280929190818152602001828054600181600116156101000203166002900480156108d15780601f106108a6576101008083540402835291602001916108d1565b820191906000526020600020905b8154815290600101906020018083116108b457829003601f168201915b50505060028085018054604080516020601f60001961010060018716150201909416959095049283018590048502810185019091528181529596959450909250908301828280156109635780601f1061093857610100808354040283529160200191610963565b820191906000526020600020905b81548152906001019060200180831161094657829003601f168201915b5050505060038301805460408051602060026001851615610100026000190190941693909304601f81018490048402820184019092528181529495949350908301828280156109f35780601f106109c8576101008083540402835291602001916109f3565b820191906000526020600020905b8154815290600101906020018083116109d657829003601f168201915b5050505060048301805460408051602060026001851615610100026000190190941693909304601f8101849004840282018401909252818152949594935090830182828015610a835780601f10610a5857610100808354040283529160200191610a83565b820191906000526020600020905b815481529060010190602001808311610a6657829003601f168201915b5050505060058301805460408051602060026001851615610100026000190190941693909304601f8101849004840282018401909252818152949594935090830182828015610b135780601f10610ae857610100808354040283529160200191610b13565b820191906000526020600020905b815481529060010190602001808311610af657829003601f168201915b5050505050905086565b6000546001600160a01b031681565b60006002876040518082805190602001908083835b60208310610b605780518252601f199092019160209182019101610b41565b6001836020036101000a03801982511681845116808217855250505050505090500191505090815260200160405180910390205490506040518060c00160405280888152602001878152602001868152602001858152602001848152602001838152506001886040518082805190602001908083835b60208310610bf55780518252601f199092019160209182019101610bd6565b51815160209384036101000a600019018019909216911617905292019485525060408051948590038201909420600087815290825293909320845180519194610c4394508593500190610ff8565b506020828101518051610c5c9260018501920190610ff8565b5060408201518051610c78916002840191602090910190610ff8565b5060608201518051610c94916003840191602090910190610ff8565b5060808201518051610cb0916004840191602090910190610ff8565b5060a08201518051610ccc916005840191602090910190610ff8565b509050507fb3005330bf91a0e850b72b515803812aa124ad7fdca176dae397e81ba99864ff8787878787876040518080602001806020018060200180602001806020018060200187810387528d818151815260200191508051906020019080838360005b83811015610d48578181015183820152602001610d30565b50505050905090810190601f168015610d755780820380516001836020036101000a031916815260200191505b5087810386528c5181528c516020918201918e019080838360005b83811015610da8578181015183820152602001610d90565b50505050905090810190601f168015610dd55780820380516001836020036101000a031916815260200191505b5087810385528b5181528b516020918201918d019080838360005b83811015610e08578181015183820152602001610df0565b50505050905090810190601f168015610e355780820380516001836020036101000a031916815260200191505b5087810384528a5181528a516020918201918c019080838360005b83811015610e68578181015183820152602001610e50565b50505050905090810190601f168015610e955780820380516001836020036101000a031916815260200191505b5087810383528951815289516020918201918b019080838360005b83811015610ec8578181015183820152602001610eb0565b50505050905090810190601f168015610ef55780820380516001836020036101000a031916815260200191505b5087810382528851815288516020918201918a019080838360005b83811015610f28578181015183820152602001610f10565b50505050905090810190601f168015610f555780820380516001836020036101000a031916815260200191505b509c5050505050505050505050505060405180910390a16002876040518082805190602001908083835b60208310610f9e5780518252601f199092019160209182019101610f7f565b51815160209384036101000a6000190180199092169116179052920194855250604051938490030190922080546001019055505050505050505050565b805160208183018101805160028252928201919093012091525481565b828054600181600116156101000203166002900490600052602060002090601f016020900481019282601f1061103957805160ff1916838001178555611066565b82800160010185558215611066579182015b8281111561106657825182559160200191906001019061104b565b50611072929150611076565b5090565b61109091905b80821115611072576000815560010161107c565b9056fea265627a7a723158209c796253e8b8ad2efedc9355d95a55601b0096573efbbf1dd820db34c70f20f464736f6c63430005100032",
  "source": "pragma solidity >=0.4.22;\r\n\r\ncontract Storedata {\r\n    address public owner = msg.sender;\r\n\r\n    struct TranscriptDetails {\r\n       string id;\r\n       string fullname;\r\n       string yearofpassing;\r\n       string deparmentName;\r\n       string IPFSurl;  \r\n       string Filehash;\r\n    }\r\n    event Dataadded (\r\n        string id,\r\n        string fullname,\r\n        string yearofpassing,\r\n        string deparmentName,\r\n        string IPFSurl,\r\n        string Filehash\r\n    );\r\n\r\nmapping(string => mapping(uint => TranscriptDetails)) public studentStorage;\r\nmapping(string => uint) public transcriptCount;\r\n\r\n constructor () public{\r\nAddDetails(\"10191602023\",\"Nayan Shingare\",\"2023\",\"Computer\",\"0xe332d43ftjukif4r4rmsw\",\"0xe332d43ftjukif4r4rmsw\");\r\n    }\r\n\r\n     function AddDetails(string memory id,string memory fullname,string memory yearofpassing,string memory deparmentName,string memory IPFSurl,string memory Filehash) public {\r\n        uint transcriptCnt = transcriptCount[id];\r\n        studentStorage[id][transcriptCnt] = TranscriptDetails(id, fullname, yearofpassing,deparmentName,IPFSurl,Filehash);\r\n         emit Dataadded(id,fullname, yearofpassing,deparmentName,IPFSurl,Filehash);\r\n        transcriptCount[id]++;\r\n\r\n    }\r\n\r\n \r\n\r\n     \r\n}\r\n",
  "sourcePath": "C:\\Users\\NAYAN\\Desktop\\reacttutorials\\documentverifier\\client\\src\\contracts\\Storedata.sol",
  "compiler": {
    "name": "solc",
    "version": "0.5.16+commit.9c3226ce.Emscripten.clang"
  },
  "schemaVersion": "3.4.10",
  "updatedAt": "2023-02-13T04:15:28.798Z",
  "networkType": "ethereum",
  "devdoc": {
    "methods": {}
  },
  "userdoc": {
    "methods": {}
  }
}